:060000000A128A11FA2F1A
:100EF8000630831603139F0007309C008501FF30DE
:100F08008800831203138501081E882F08080F39EB
:100F1800F000F1017008F2007108F300CE2F0130E3
:100F28008500081E882F952F02308500081E882FFF
:100F38009A2F03308500081E882F9F2F04308500C4
:100F4800081E882FA42F05308500081E882FA92F7A
:100F580006308500081E882FAE2F07308500081E32
:100F6800882FB32F08308500081E882FB82F093026
:100F78008500081E882FBD2FFF308500081E882F8A
:100F8800C22F8501081E882FC62FFF308500081E36
:100F9800882FCB2F7308003A0319D32F882F720894
:100FA800003A0319932F013A0319982F033A0319AA
:100FB8009D2F063A0319A22F013A0319A72F033AC6
:100FC8000319AC2F0E3A0319B12F013A0319B62FA2
:100FD800033A0319BB2F063A0319C02F013A031924
:100FE800C52F033A0319C92F882F882FF401F5015B
:080FF80083010A128A117C2F0B
:02400E0071FF40
:00000001FF
