:100000000A128A11FA2F00308A000408840A820733
:100010000034233400342A34003430340034313492
:100020000034323400343334003434340034353462
:100030000034363400343734003438340034393442
:0200400000348A
:100C2000F200720884000A128A1103200A128A1143
:100C3000003803190800720884000A128A11032080
:100C40000A128A110A128A117F260A128A110130A9
:100C5000F1007108F207112E38300A128A11552658
:100C60000A128A1108300A128A1155260A128A11AC
:100C700001300A128A1155260A128A1106300A1208
:100C80008A1155260A128A110C300A128A11552629
:100C90000A128A1106300A128A1155260A128A117E
:100CA00080300A128A1155260800F000700883125D
:100CB00003138600071007118714F901FA017A0857
:100CC000803AFF0080307F02031D682E6430790275
:100CD00003187B2E0130F9070318FA0A0030FA07CF
:100CE0007A08803AFF0080307F02031D792E64303D
:100CF0007902031C6A2E8312031387100800F00088
:100D00007008831203138600071407118714F90172
:100D1000FA017A08803AFF0080307F02031D922E8C
:100D2000643079020318A52E0130F9070318FA0A76
:100D30000030FA077A08803AFF0080307F02031DF6
:100D4000A32E64307902031C942E831203138710A0
:100D500008008316031386018701FF3088000A12FA
:100D60008A112C260A128A1180300A128A115526FD
:100D70000A128A1101300A128A1155260A128A11A2
:100D8000F501F601F701F80183120313081EC42EC2
:100D900008080F39F300F4017308F5007408F60031
:100DA000143077067804031DDC2EC0300A128A1135
:100DB00055260A128A11CE2F283077067804031D93
:100DC000E82E94300A128A1155260A128A11CE2F63
:100DD0003C3077067804031DF42ED4300A128A11B1
:100DE00055260A128A11CE2F503077067804031D3B
:100DF000CE2F01300A128A1155260A128A11F701E4
:100E0000F801CE2F07300A128A1110260A128A1111
:100E10000130F7070318F80A0030F80783120313AC
:100E2000081EC42E0E2F09300A128A1110260A122B
:100E30008A110130F7070318F80A0030F807831207
:100E40000313081EC42E1F2F0B300A128A111026FE
:100E50000A128A110130F7070318F80A0030F80760
:100E600083120313081EC42E302F0D300A128A116C
:100E700010260A128A110130F7070318F80A003009
:100E8000F80783120313081EC42E412F0F300A12D5
:100E90008A1110260A128A110130F7070318F80A7E
:100EA0000030F80783120313081EC42E522F11308E
:100EB0000A128A1110260A128A110130F707031844
:100EC000F80A0030F80783120313081EC42E632F9C
:100ED00013300A128A1110260A128A110130F707FC
:100EE0000318F80A0030F80783120313081EC42EF3
:100EF000742F15300A128A1110260A128A11013035
:100F0000F7070318F80A0030F80783120313081EC6
:100F1000C42E852F17300A128A1110260A128A1140
:100F20000130F7070318F80A0030F807831203139B
:100F3000081EC42E962F03300A128A1110260A1298
:100F40008A110130F7070318F80A0030F8078312F6
:100F50000313081EC42EA72F05300A128A1110266B
:100F60000A128A110130F7070318F80A0030F8074F
:100F700083120313081EC42EB82F01300A128A11DF
:100F800010260A128A110130F7070318F80A0030F8
:100F9000F80783120313081EC42EC92F7608003ADF
:100FA0000319D32FC42E7508003A0319022F013AF2
:100FB0000319132F033A0319242F063A0319352F67
:100FC000013A0319462F033A0319572F0E3A031912
:100FD000682F013A0319792F033A03198A2F063A29
:100FE00003199B2F013A0319AC2F033A0319BD2FA4
:100FF000C42EC42EF901FA0183010A128A11A92E06
:02400E0071FF40
:00000001FF
