:060000000A128A11E72F2D
:10001200720871047004031D1B2873088400831383
:100022008001840A80010030F0000030F1000030CD
:10003200F200080072087F39F400F5010310F40D94
:10004200F50D73088400740883138000840A750810
:100052008000710D710D0139F400F50173088400FF
:1000620074088004840A750880047308840082304E
:100072008007840F00080318000AFF00FF307F0783
:1000820080008403720880393F38F200F1130800BF
:1000920083160313C6013B083A043904031D73286F
:1000A2000030F0000030F1000030F2003C08F300B4
:1000B2003D08F4003E08F5000A168A1576240A1255
:1000C2008A11031C6A28213083160313E7000030CB
:1000D200E800003083160313B9000030BA00003084
:1000E200BB0008003E083D043C04031D7F2800308D
:1000F200B9008030BA003F30BB0008003908F00078
:100102003A08F1003B08F2000030F3000030F4003E
:100112000030F5000A168A1576240A128A1103188D
:10012200FF28831603133C0883120313DD00831692
:1001320003133D0883120313DE00831603133E08E4
:1001420083120313DF000A168A15D9260A128A11AE
:1001520083120313600883160313CA008312031366
:100162005F0883160313C900831203135E08831604
:100172000313C800831203135D0883160313C70019
:100182004A08FB004908FA004808F9004708F80045
:100192000A128A150A200A128A11831603133E08CC
:1001A2007A06031DDA283D087906031DDA283C0881
:1001B20078060319E7282130E7000030E800003014
:1001C200B9000030BA000030BB000800470801390E
:1001D200BF003F08C6003908F0003A08F1003B08AA
:1001E200F2000A168A1531220A128A117008831641
:1001F2000313B9007108BA007208BB008316031317
:10020200390883120313E700831603133A08831293
:100212000313E800831603133B0883120313E90058
:100222000A168A11B8230A128A1183120313670865
:1002320083160313C0008312031368088316031383
:10024200C10083120313690883160313C2003C081A
:1002520083120313B000831603133D0883120313A2
:10026200B100831603133E0883120313B2008316F0
:100272000313400883120313B300831603134108C8
:1002820083120313B4008316031342088312031369
:10029200B5000A168A1188240A128A1183120313DE
:1002A200300883160313C300831203133108831625
:1002B2000313C40083120313320883160313C50009
:1002C2004308AC004408AD004508AE000A128A1586
:1002D20067210A128A11831603132C08B9002D080C
:1002E200BA002E08BB004608031908003908F000BE
:1002F2003A08F1003B08F2000A168A15312270080A
:1003020083160313B9007108BA007208BB00080013
:1003120083160313C3006C30A0002008B50001301F
:1003220083120313EB07FF306B0784000A168A114E
:1003320000200A128A1183160313A0002008C700A6
:10034200C7080319E22F4708253A0319B4294708B9
:10035200A000430884002008831380000130A0001D
:100362002008C3079029B601B701B9293715D52945
:10037200013083120313EB07FF306B0784000A1668
:100382008A1100200A128A1183160313C700003A49
:100392000319E22F643A0319D529023A0319B7293E
:1003A2000F3A0319D529902900303605A0000730ED
:1003B2003705A100210820040319F12E0630BB00E5
:1003C2000030BC003508840083130008C400840A8E
:1003D2000008C500840A0008C6000330A0002008F7
:1003E200B5074408F0004508F1004608F200003065
:1003F200F3000030F4000030F5000A168A15762466
:100402000A128A1103181E2A831603134408F000E5
:100412004508F1004608F2000A168A1531220A122E
:100422008A11700883160313C4007108C50072088C
:10043200C6000330B6040030B70483160313C101AB
:10044200C2014608450444040319122BC430840037
:1004520083130008A000840A0008A100840A00088F
:10046200A200840A0008A3000F300310A30CA20C00
:10047200A10CA00CFF3E031D362AFF302005A4006C
:1004820000302105A5002408823EC100250803187A
:10049200013EFF3EC200FF30C1070318C20AFF300F
:1004A200C2070330F0000030F1004208F301F30705
:1004B2004108F201F2070A168A15D7220A128A1196
:1004C200710883160313C201C2077008C101C10774
:1004D2000A30F7000030F8004208FA01FA07410832
:1004E200F901F9070A168A15D3240A128A11780823
:1004F20083160313C201C2077708C101C107C21FD5
:10050200882AFF30C1070318C20AFF30C20741031D
:10051200FF3A0A128A1561250A128A1183120313FD
:10052200400883160313B80083120313410883168D
:100532000313B90083120313420883160313BA008C
:10054200440883120313B000831603134508831271
:100552000313B10083160313460883120313B20078
:1005620083160313380883120313B300831603138D
:10057200390883120313B400831603133A08831253
:100582000313B5000A168A1188240A128A118312EB
:100592000313300883160313B800831203133108C0
:1005A20083160313B900831203133208831603134D
:1005B200BA003808F0003908F1003A08F2000030B9
:1005C200F3008030F4003F30F5000A168A157624D5
:1005D2000A128A110318F52AFF3083160313C10782
:1005E2000318C20AFF30112B831603133808F000D8
:1005F2003908F1003A08F2000030F3002030F4002C
:100602004130F5000A168A1576240A128A11031C53
:10061200122B013083160313C1070318C20A0030DC
:10062200C207831603133C08803AFF0080307F0222
:10063200031D1D2B0D303B020318582B8316031389
:100642003B080A168A1164260A128A1183120313BE
:100652004008D0004108D1004208D200831603139B
:10066200440883120313D30083160313450883122D
:100672000313D40083160313460883120313D50011
:100682000A168A115B250A128A1183120313500873
:1006920083160313C4008312031351088316031332
:1006A200C50083120313520883160313C600831670
:1006B20003134208803AFF0080307F02031D632B40
:1006C2000A3041020318962B831603134608450489
:1006D20044040319F72B440883120313DD00831625
:1006E2000313450883120313DE008316031346081F
:1006F20083120313DF000A168A15D9260A128A11F9
:100702008312031360085F045E045D04031DF72B6C
:10071200831603134208803AFF0080307F02031DD4
:10072200942B02304102031CF72B83160313380863
:10073200F0003908F1003A08F2007030F300893015
:10074200F4004030F5000A168A1576240A128A113E
:100752000318AD2BF730AE2BF83083160313C10705
:100762000318C20AFF30C20741080A128A1561251E
:100772000A128A1183120313400883160313B80066
:1007820083120313410883160313B9008312031360
:10079200420883160313BA004408F0004508F1002A
:1007A2004608F2003808F3003908F4003A08F50068
:1007B2000A168A1130220A128A1173088316031349
:1007C200AC007208AB007108AA007008A9002C08DE
:1007D200C0002B08BF002A08BE002908BD00003057
:1007E200C4000030C5000030C600662C8316031317
:1007F200440883120313DD00831603134508831292
:100802000313DE0083160313460883120313DF006B
:100812000A168A15D9260A128A118312031360084E
:1008220083160313C000831203135F088316031396
:10083200BF00831203135E0883160313BE008312E4
:1008420003135D0883160313BD004008FB003F0835
:10085200FA003E08F9003D08F8000A128A150A203B
:100862000A128A11780883120313DD007908DE0068
:100872007A08DF0083160313440883120313E0008F
:1008820083160313450883120313E100831603132F
:10089200460883120313E2000A168A159A220A12E4
:1008A2008A11831203135D0883160313C400831293
:1008B20003135E0883160313C500831203135F0834
:1008C20083160313C600C101C201C701C70A470844
:1008D2000A3A0319A82C4708A00001300310A00D02
:1008E200FF3E031D6F2C0310200D013E84000A16EB
:1008F2008A1100200A128A11A1000A168A11002008
:100902000A128A11A2000A168A1100200A128A11FA
:10091200A3000A168A1100200A128A11A4002408D0
:100922004002031D9E2C23083F02031D9E2C220819
:100932003E02031D9E2C21083D02031CA82C0130FF
:10094200A0002008C70747080A3A031D6C2C033091
:100952003605A00000303705A10021082004031944
:10096200BD2C2D30A0004308840020088313800092
:100972000130A0002008C307FF30A0002008C707ED
:100982004708FF3A0319552D4708A000013003100C
:10099200A00DFF3E031DC82C0310200D013E840054
:1009A2000A168A1100200A128A11F0000A168A1108
:1009B20000200A128A11F1000A168A1100200A1276
:1009C2008A11F2000A168A1100200A128A11F30013
:1009D2004008F7003F08F6003E08F5003D08F40025
:1009E2000A168A1530250A128A1173088316031310
:1009F200B0007208AF007108AE007008AD000030A0
:100A020083120313A3000030A2000030A1000A30B9
:100A1200A00083160313300883120313A700831662
:100A220003132F0883120313A600831603132E0841
:100A320083120313A500831603132D0883120313D5
:100A4200A4000A168A1528240A128A118312031393
:100A5200230883160313B00083120313220883169C
:100A62000313AF0083120313210883160313AE008E
:100A720083120313200883160313AD002D08303EA2
:100A8200B32C303083160313A000430884002008DF
:100A9200831380000130A0002008C307FF30C10784
:100AA2000318C20AFF30C2074208803AFF008030B2
:100AB2007F02031D5E2D013041020318422D831671
:100AC20003133C08803AFF0080307F02031D6B2D28
:100AD20009303B02031C712D083083160313742D59
:100AE200831603133B08A0002008C7004708A00094
:100AF200A101A01BA1032008BB022108031CBC0307
:100B0200BC0247080319902D2E30A0004308840030
:100B12002008831380000130A0002008C307470883
:100B22000A128A1561250A128A11831203134008D8
:100B320083160313A60083120313410883160313BB
:100B4200A70083120313420883160313A800260882
:100B520083120313B30083160313270883120313AC
:100B6200B40083160313280883120313B5008316F7
:100B72000313440883120313B000831603134508BA
:100B820083120313B100831603134608831203135F
:100B9200B2000A168A1188240A128A1183120313D8
:100BA2003008DD003108DE003208DF000A168A153F
:100BB200D9260A128A1183120313600883160313BB
:100BC200C000831203135F0883160313BF0083124E
:100BD20003135E0883160313BE00831203135D081A
:100BE20083160313BD00FF30A0002008C707470883
:100BF200FF3A0319EC2E4708A00001300310A00DA4
:100C0200FF3E031DFF2D0310200D013E84000A1636
:100C12008A1100200A128A11F0000A168A11002095
:100C22000A128A11F1000A168A1100200A128A1188
:100C3200F2000A168A1100200A128A11F3004008F3
:100C4200F7003F08F6003E08F5003D08F4000A16DA
:100C52008A1530250A128A11730883160313B40009
:100C62007208B3007108B2007008B100003083123C
:100C72000313A3000030A2000030A1000A30A0003C
:100C820083160313340883120313A7008316031376
:100C9200330883120313A600831603133208831248
:100CA2000313A50083160313310883120313A40050
:100CB2000A168A1528240A128A118312031323089A
:100CC20083160313B400831203132208831603133B
:100CD200B30083120313210883160313B200831295
:100CE2000313200883160313B1003108303EA0001D
:100CF200430884002008831380000130A0002008EC
:100D0200C3074708A00001300310A00DFF3E031DDA
:100D1200852E0310200D013E84000A168A11002040
:100D22000A128A1183120313A0000A168A110020E4
:100D32000A128A11A1000A168A1100200A128A11C7
:100D4200A2000A168A1100200A128A11A300831631
:100D52000313400883120313A700831603133F08EB
:100D620083120313A600831603133E088312031390
:100D7200A500831603133D0883120313A4000A1669
:100D82008A1528240A128A11831203132308831650
:100D92000313C00083120313220883160313BF0038
:100DA20083120313210883160313BE008312031355
:100DB2002008F12D3030A00043088400200883135E
:100DC20080000130A0002008C307FF30BB070318D2
:100DD200BC0AFF30BC073C083B0403199029DB2EF8
:100DE2003508840083130008A000840A0008A100CB
:100DF2002008BD002108BE000030BE1BFF30BF002E
:100E0200C0000230A0002008B507C01F172F033012
:100E1200B6040030B704BD09BE09BF09C009BD0A46
:100E22000319BE0A0319BF0A0319C00AC701C70A78
:100E320047080A3A0319592F4708A0000130031046
:100E4200A00DFF3E031D202F0310200D013E840044
:100E52000A168A1100200A128A11A1000A168A11A2
:100E620000200A128A11A2000A168A1100200A1210
:100E72008A11A3000A168A1100200A128A11A400FC
:100E820024084002031D4F2F23083F02031D4F2F4A
:100E920022083E02031D4F2F21083D02031C592F39
:100EA2000130A0002008C70747080A3A031D1D2F7A
:100EB20003303605A00000303705A10021082004C8
:100EC20003196E2F2D30A0004308840020088313DD
:100ED20080000130A0002008C3074708BB00BC0106
:100EE200BB1BBC03FF30BB070318BC0AFF30BC07A7
:100EF200FF303C06031D7F2FFF303B06031990296C
:100F0200003083120313A3000030A2000030A100BE
:100F12000A30A000831603133B08A000013003101F
:100F2200A00DFF3E031D902F0310200D013E8400F3
:100F32000A168A1100200A128A11F0000A168A1172
:100F420000200A128A11F1000A168A1100200A12E0
:100F52008A11F2000A168A1100200A128A11F3007D
:100F62004008F7003F08F6003E08F5003D08F4008F
:100F72000A168A1530250A128A117308831203137E
:100F8200A7007208A6007108A5007008A4000A163E
:100F92008A1528240A128A11831203132008303E6C
:100FA20083160313A1002108C7004708A0004308C5
:100FB20084002008831380000130A0002008C307AA
:100FC200732F4308840083138001080083160313E0
:100FD200E201E301E401E501E601E701E80183132F
:100FE200E230FD000830FE000130FF00D9308400FD
:0E0FF2000A168A15552283010A128A15212B30
:10100200203420342034203420342034203420343E
:1010120020348E30FC007C08FD00FF307B05031974
:10102200202801300310FB0CFA0CF90CF80CFF3EDF
:10103200031D13280130FC007C08FD070E287808E8
:10104200F0007908F1007A08F2007D08FC007C08C3
:10105200F300F4010A168A158E257008F80071084B
:10106200F9007208FA000800703084000008F600E7
:10107200840A0008F700840A0008F800840A0008BD
:10108200F9000310780D790DFA007A088312031320
:10109200A500A508031D56280030F3000030F20019
:1010A2000030F1000030F0000800733084000008C6
:1010B200F600840A0008F700840A0008F800840A8F
:1010C2000008F9000310780D790DFA007A08A400DF
:1010D200A408031D75280030F3000030F200003030
:1010E200F1000030F000080070308400003080040D
:1010F200840A00308004840A80308004840A00302C
:10110200800470308400FF308005840AFF3080053F
:10111200840AFF308005840A003080057330840021
:1011220000308004840A00308004840A8030800405
:10113200840A0030800473308400FF308005840A02
:10114200FF308005840AFF308005840A0030800564
:101152000030A3000030A2000030A1000030A00047
:101162007F30A502A0302407F6007608A5022030C1
:10117200F6007608A4000130F6000310A00DA10DC0
:10118200A20DA30DF60BBE28733084000008F600F2
:10119200840A0008F700840A0008F800840A00089C
:1011A200F900703084000008FA00840A0008FB008D
:1011B200840A0008FC00840A0008FD0079087D0208
:1011C200031DED2878087C02031DED2877087B02B9
:1011D200031DED2876087A02031C1229733084005D
:1011E2000008F600840A0008F700840A0008F800E4
:1011F200840A0008F9007030840076088002840AAC
:101202007708031C770F8002840A7808031C780F82
:101212008002840A7908031C790A8002033084025E
:101222002014703084000310800D840A800D840A1B
:10123200800D840A800D8403840384030130A40298
:10124200031DBC28A51F43292508803A9F3E031889
:1012520033290030F3000030F2000030F10000309A
:10126200F000080001300310A30CA20CA10CA00C8A
:10127200FF3E031D34290130F6007608A507031945
:101282005E29332920302502031C5B290030F3003C
:101292000030F2000030F1000030F00008000130B0
:1012A200F6000310A00DA10DA20DA30DF60B5229FD
:1012B2000130A502A508031D50292308F3002208C6
:1012C200F2002108F1002008F00008008316031341
:1012D2002E082D042C04031D75290030AC0080302B
:1012E200AD003F30AE0008007230F0003130F10046
:1012F2004430F2002C08F3002D08F4002E08F5000B
:101302000A168A1576240A128A150318952922309C
:1013120083160313E7000030E800FF30AC007F3093
:10132200AD007F30AE000800831603132C08F000D6
:101332002D08F1002E08F2004930F3003A30F40093
:10134200C430F5000A168A1576240A128A15031883
:10135200B729223083160313E7000030E80000307B
:10136200AC000030AD000030AE000800831603135D
:101372002C08F0002D08F1002E08F2000030F300D6
:101382000030F4000030F5000A168A1576240A129D
:101392008A150030031C013083160313AF002F0897
:1013A200B80038080319E8292C08F0002D08F100CC
:1013B2002E08F2000A168A1531220A128A157008BE
:1013C20083160313AC007108AD007208AE00AA3098
:1013D20083120313B000B830B1003F30B20083165D
:1013E20003132C0883120313B300831603132D086F
:1013F20083120313B400831603132E0883120313FC
:10140200B5000A168A1188240A128A158312031358
:10141200300883160313AC008312031331088316BA
:101422000313AD0083120313320883160313AE00B5
:101432002C08A4002D08A5002E08A6000A168A1161
:10144200F3220A128A15831603132408B000250812
:10145200B1002608B200300883120313DD008316A0
:101462000313310883120313DE00831603133208B9
:1014720083120313DF000A168A15D9260A128A1567
:10148200831203135E0883160313B701B70783128F
:1014920003135D0883160313B601B6073708F90173
:1014A200F9073608F801F8070A168A15B6220A1251
:1014B2008A15780883120313DD007908DE007A08A2
:1014C200DF00831603132C0883120313E000831634
:1014D20003132D0883120313E100831603132E084E
:1014E20083120313E2000A168A159A220A128A1537
:1014F200831203135D0883160313AC0083120313D4
:101502005E0883160313AD00831203135F0883166C
:101512000313AE002C0883120313DD00831603139A
:101522002D0883120313DE00831603132E08831281
:101532000313DF00773083160313AF002F088312E3
:101542000313E0000930E1000030E2000A168A15B8
:1015520060260A128A15831203135D08E7005E08EB
:10156200E8005F08E90083160313370883120313A8
:10157200EB01EB0783160313360883120313EA0108
:10158200EA070A168A1567270A128A1583120313B5
:10159200670883160313AC008312031368088316CB
:1015A2000313AD0083120313690883160313AE00FD
:1015B200380803190800FF30B3007F30B4007F30D1
:1015C200B5002E083506031DEC2A2D083406031D2E
:1015D200EC2A2C083306031DF52A0030AC0000303B
:1015E200AD000030AE0008002C0883120313A000E7
:1015F200831603132D0883120313A100831603130A
:101602002E0883120313A2000030A3008030A4002E
:101612003F30A5000A168A1178218312031320088D
:1016220083160313AC0083120313210883160313DA
:10163200AD0083120313220883160313AE000800C1
:10164200003083160313BC006030BD004130BE0081
:101652000030B9000030BA004030BB000A128A11D3
:1016620049200A128A15831603133908CF003A0853
:10167200D0003B08D1004F0883120313DD0083160C
:101682000313500883120313DE0083160313510859
:1016920083120313DF000A168A15D9260A128A1545
:1016A200831203135E0883160313D301D307831235
:1016B20003135D0883160313D201D207D401D501A7
:1016C200D601D701D801860188018312031386014E
:1016D20088010A168A1542220A128A150A168A11E6
:1016E200CE200A128A150A168A151B220A128A1598
:1016F20080300A168A1539220A128A15E5300A162E
:101702008A1539220A128A150A168A1514220A1211
:101712008A1581300A168A1539220A128A15013071
:101722000A168A15FA220A128A1583160313CD00A5
:10173200CE014D08D4004E08D50000300A168A1595
:10174200FA220A128A1583160313CD004D08D80017
:101752000A168A1522220A128A15C830F0000030B1
:10176200F1000A168A1520230A128A15831603131A
:101772005508CE005408CD000630FF000310CD0DF1
:10178200CE0DFF0BBF2B4D08D4004E08D5005808D4
:10179200CD0002300310CD0CFF3E031DCB2B4D08B4
:1017A200CE004E08D80054085804D4005508D5007D
:1017B2005508F901F9075408F801F8070A168A15BD
:1017C20086220A128A15780883120313A300790865
:1017D200A4007A08A500831603135308F901F90738
:1017E2005208F801F8070A168A15B6220A128A1553
:1017F200780883120313A0007908A1007A08A200D6
:101802000A168A1178210A128A15831203132008F4
:10181200B3002108B4002208B5000030B000FA304D
:10182200B1004230B2000A168A1188240A128A15BF
:10183200831203133008D3003108D4003208D500D4
:101842000030D000C030D100C030D2000A168A1158
:101852005B250A128A15831203135008DD00510812
:10186200DE005208DF000A168A15D9260A128A15E6
:10187200831203135E0883160313E601E60783123D
:1018820003135D0883160313E501E5070A168A159B
:101892001B220A128A1580300A168A1539220A1268
:1018A2008A15E3300A168A1539220A128A150A168F
:1018B2008A1522220A128A15C830F0000030F1007F
:1018C2000A168A1520230A128A1583160313D801D1
:1018D2000A168A151B220A128A1580300A168A15E0
:1018E20039220A128A15E3300A168A1539220A1297
:1018F2008A150A168A1514220A128A1581300A16C6
:101902008A1539220A128A1501300A168A15FA2214
:101912000A128A1583160313CD00CE014D08D60094
:101922004E08D70000300A168A15FA220A128A15C2
:1019320083160313CD004D08D8000A168A152222F9
:101942000A128A15C830F0000030F1000A168A1512
:1019520020230A128A15831603135708CE0056084D
:10196200CD000630FF000310CD0DCE0DFF0BB42CC1
:101972004D08D6004E08D7005808CD00023003109B
:10198200CD0CFF3E031DC02C4D08CE004E08D800E2
:1019920056085804D6005708D7006630831203133E
:1019A200D0003B30D100C230D200B830B0002F306E
:1019B200B1004330B200831603135308F901F9074B
:1019C2005208F801F8070A168A15B6220A128A1571
:1019D200780883120313A0007908A1007A08A200F4
:1019E200831603135708F901F9075608F801F80797
:1019F2000A168A1586220A128A1578088312031398
:101A0200A3007908A4007A08A5000A168A11782191
:101A12000A128A15831203132008B3002108B400A6
:101A22002208B5000A168A1188240A128A1583121E
:101A320003133008D3003108D4003208D5000A1647
:101A42008A115B250A128A15831203135008831622
:101A52000313E20083120313510883160313E300F6
:101A620083120313520883160313E4000A168A151D
:101A72001B220A128A1580300A168A1539220A1286
:101A82008A15E5300A168A1539220A128A150A16AB
:101A92008A1522220A128A15C830F0000030F1009D
:101AA2000A168A1520230A128A150A168A1548234D
:101AB2000A128A150A168A15F6250A128A15742B35
:101AC20083120313C800C81FB42EC809C80A4808E5
:101AD200803A123E031C272E0330C3004308A400A1
:101AE2000A30F7000030F8004808F200F301F21B58
:101AF200F3036430F0000030F1000A168A15DB238C
:101B02000A128A157108FA01FA077008F901F90731
:101B12000A168A15D3240A128A157708093E0A166C
:101B22008A11BB200A128A15293E84000A168A11DC
:101B320000200A128A1583120313B0000A168A11B2
:101B420000200A128A15B1000A168A1100200A1210
:101B52008A15B2000330C4004408A4006430F700C0
:101B62000030F8004808F900FA01F91BFA030A16D6
:101B72008A15D3240A128A157708123E0A168A1188
:101B8200BB200A128A15293E84000A168A110020F7
:101B92000A128A1583120313B3000A168A1100204F
:101BA2000A128A15B4000A168A1100200A128A152E
:101BB200B5000A168A1188240A128A1583120313A1
:101BC2003008C5003108C6003208C7000330C30020
:101BD2004308A4004808F200F301F21BF3030A30A1
:101BE200F0000030F1000A168A15DB230A128A156A
:101BF20070080A168A11BB200A128A15293E84002F
:101C02000A168A1100200A128A1583120313B000E1
:101C12000A168A1100200A128A15B1000A168A11C0
:101C220000200A128A15B2004508B3004608B40023
:101C32004708B5000A168A11882483120313300854
:101C4200C0003108C1003208C20008004808803ACA
:101C5200753E031C952E0330C3004308A4004808B8
:101C6200F200F301F21BF3030A30F0000030F1003E
:101C72000A168A15DB230A128A1570080A168A11B7
:101C8200BB200A128A15293E84000A168A110020F6
:101C92000A128A1583120313B0000A168A11002051
:101CA2000A128A15B1000A168A1100200A128A1530
:101CB200B2000330C4004408A4000A30F700003028
:101CC200F8004808F900FA01F91BFA030A168A1506
:101CD200D3240A128A157708093E0A168A11BB20F4
:101CE2000A128A15293E84000A168A1100200A1255
:101CF2008A1583120313B3000A168A1100200A12EE
:101D02008A15B4000A168A1100200A128A15B50033
:101D12000A168A118824831203133008C00031087E
:101D2200C1003208C20008000330C3004308A40007
:101D320048080A168A11BB200A128A15293E840015
:101D42000A168A1100200A128A1583120313C00090
:101D52000A168A1100200A128A15C1000A168A116F
:101D62000020C20008004808803A123E031C732F6C
:101D72000330C3004308A4000A30F7000030F80023
:101D82004808F200F301F21BF3036430F000003064
:101D9200F1000A168A15DB230A128A157108FA0164
:101DA200FA077008F901F9070A168A15D3240A12EC
:101DB2008A157708093E0A168A11BB200A128A156B
:101DC200503E84000A168A1100200A128A158312D4
:101DD2000313B0000A168A1100200A128A15B100F4
:101DE2000A168A1100200A128A15B2000330C400B2
:101DF2004408A4006430F7000030F8004808F900F5
:101E0200FA01F91BFA030A168A15D3240A128A1553
:101E12007708123E0A168A11BB200A128A15503E12
:101E220084000A168A1100200A128A1583120313EB
:101E3200B3000A168A1100200A128A15B4000A1683
:101E42008A1100200A128A15B5000A168A118824FE
:101E52000A128A15831203133008C5003108C6001E
:101E62003208C7000330C3004308A4004808F20048
:101E7200F301F21BF3030A30F0000030F1000A16FE
:101E82008A15DB230A128A1570080A168A11BB20EA
:101E92000A128A15503E84000A168A1100200A127C
:101EA2008A1583120313B0000A168A1100200A123F
:101EB2008A15B1000A168A1100200A128A15B20088
:101EC2004508B3004608B4004708B5000A168A114F
:101ED2008824831203133008C0003108C10032087D
:101EE200C20008004808803A753E031CE12F033007
:101EF200C3004308A4004808F200F301F21BF303F5
:101F02000A30F0000030F1000A168A15DB230A12AB
:101F12008A1570080A168A11BB200A128A15503EC9
:101F220084000A168A1100200A128A1583120313EA
:101F3200B0000A168A1100200A128A15B1000A1688
:101F42008A1100200A128A15B2000330C400440824
:101F5200A4000A30F7000030F8004808F900FA013E
:101F6200F91BFA030A168A15D3240A128A1577086E
:101F7200093E0A168A11BB200A128A15503E8400B5
:101F82000A168A1100200A128A1583120313B3005B
:101F92000A168A1100200A128A15B4000A168A113A
:101FA20000200A128A15B5000A168A1188248312A3
:101FB20003133008C0003108C1003208C200080013
:101FC2000330C3004308A40048080A168A11BB2044
:101FD2000A128A15503E84000A168A1100200A123B
:101FE2008A1583120313C0000A168A1100200A12EE
:101FF2008A15C1000A168A110020C200080010309A
:102002008A000408840A8207003401340034003450
:1020120000340A34003400340034643400340034B0
:102022000034E834033400340034103427340034EC
:102032000034A034863401340034403442340F3446
:10204200003480349634983400340034E134F5346A
:1020520005340034CA349A343B34003480343F347B
:10206200CD34CC343D34D73423343C34123483342D
:102072003A34B734D1343834C63427343734383468
:1020820086343534C034D6343334CC342B34323401
:10209200703489343034E734DB342E34E5343C3464
:1020A2001E344234A2340D34003480343F340034C0
:1020B200203441340034C834423400347A34443455
:1020C20040341C3446345034C334473424347434DA
:1020D2004934973418344B34BC34BE344C346B34EA
:1020E2006E344E340334153450347934AD346034A4
:1020F200F33449347134003480343F34723431342F
:102102003F34FE3475343E34583463343D349534B0
:102112001D343C34C534AE343A3479342134393444
:102122009434803437349334A734353456341534E8
:102132003434003400340034003480343F34F0341A
:10214200FF34BE34E234A9343E3483347634BE34B0
:10215200AE342B343E343C34C334BD34D234133425
:102162003D347834D334BB342534643400342534DC
:102172006634003483120313A600A501261CC52869
:102182002408FC007C08A5070310A40D0310A60C6C
:10219200A608031DBF28250808000130F000003002
:1021A200F1000A168A1520230A168A1138300A16F7
:1021B2008A1574220A168A1101300A168A157422A7
:1021C2000A168A1106300A168A1574220A168A110C
:1021D2000E300A168A1574220A168A1180300A16DF
:1021E2008A1574220A168A1148300A168A15622242
:1021F2000A168A1175300A168A1562220A168A117F
:102202006D300A168A1562220A168A1169300A1678
:102212008A1562220A168A1164300A168A15622207
:102222000A168A1169300A168A1562220A168A115A
:1022320074300A168A1562220A168A1179300A1631
:102242008A1562220A168A113A300A168A15622201
:102252000A168A11C0300A168A1574220A168A11C1
:1022620054300A168A1562220A168A1165300A1635
:102272008A1562220A168A116D300A168A1562229E
:102282000A168A1170300A168A1562220A168A11F3
:1022920065300A168A1562220A168A1172300A16E7
:1022A2008A1562220A168A1161300A168A1562227A
:1022B2000A168A1174300A168A1562220A168A11BF
:1022C20075300A168A1562220A168A1172300A16A7
:1022D2008A1562220A168A1165300A168A15622246
:1022E2000A168A113A300A168A15622208008312E7
:1022F20003132308A6002408A7002508A80003103A
:10230200270D280DA9002908AE00AE08031D90294B
:102312000030A0000030A1000030A2000800200818
:10232200A6002108A7002208A8000310270D280DE7
:10233200A9002908AF00AF08031DA6290030A0009C
:102342000030A1000030A20008000030AB000030D5
:10235200AC000030AD0089302F07A6002608AE027F
:102362002308A6002408A7002508A800103003109F
:10237200A80CA70CA60CFF3E031DB8292608A9002D
:102382002908AF002008A6002108A7002208A800FB
:1023920010300310A80CA70CA60CFF3E031DCA297F
:1023A2002608A9002908AF068030A6002608AF0536
:1023B200A417FF30A305FF30A4050030A505A1171F
:1023C200FF30A005FF30A1050030A2051830A6009D
:1023D2002608AA0001300310AB0DAC0DAD0DFF3E77
:1023E200031DEC2922082502031DFD2921082402D0
:1023F200031DFD2920082302031C0A2A2008A30228
:102402002108031C210FA4022208031C220AA50290
:102412002B1401300310A30DA40DA50DFF3E031DC7
:102422000B2A0130AA02031DEB292B08F0002C080D
:10243200F1002D08F2002E08A6002608F3002F084E
:10244200A7002708F4000A168A158E257008831241
:102452000313A0007108A1007208A200080070080E
:10246200F6007108F7007208F8000310770D780D76
:10247200F900790883120313A500A508031D4A2A4F
:102482000030F3000030F2000030F1000030F000C4
:1024920008007308F6007408F7007508F8000310C6
:1024A200770D780DF9007908A400A408031D622AAB
:1024B2000030F3000030F2000030F1000030F00094
:1024C2000800F117FF30F005FF30F1050030F2058A
:1024D200F417FF30F305FF30F4050030F505003046
:1024E200A3000030A2000030A1000030A0007F3025
:1024F200A50298302407F6007608A5021830F600E7
:102502007608A4000130F6000310A00DA10DA20D63
:10251200A30DF60B852A75087202031D962A74080C
:102522007102031D962A73087002031CA32A730802
:10253200F0027408031C740FF1027508031C750A7B
:10254200F202201401300310F00DF10DF20DFF3EE6
:10255200031DA42A0130A402031D832AA51FCF2A2A
:102562002508803A973E0318BF2A0030F300003056
:10257200F2000030F1000030F000080001300310DA
:10258200A30CA20CA10CA00CFF3E031DC02A01301B
:10259200F6007608A5070319EA2ABF2A1830250291
:1025A200031CE72A0030F3000030F2000030F10093
:1025B2000030F00008000130F6000310A00DA10D5C
:1025C200A20DA30DF60BDE2A0130A502A508031DFC
:1025D200DC2A2308F3002208F2002108F100200877
:1025E200F0000800831603132408F0002508F10008
:1025F2002608F200AA3083120313EF006F08F300DB
:102602000A128A1109200A168A1183160313AB1FB4
:102612002F2B2408F0002508F1002608F2000030D4
:10262200F3000030F4000030F5000A168A15762413
:102632000A168A110318262B003083160313A400EE
:102642008030A500BF30A6000800003083160313B7
:10265200A4000030A5000030A600080000302B02C4
:10266200153003192A0203180800240883120313E1
:10267200DD0083160313250883120313DE0083167D
:102682000313260883120313DF000A168A15D926BC
:102692000A168A11831203136008EE005F08ED0028
:1026A2005E08EC005D08EB000A168A158F230A16F5
:1026B2008A11831203136B0883160313A700831274
:1026C20003136C0883160313A800831203136D0807
:1026D20083160313A9002408F0002508F100260838
:1026E200F2002708F3002808F4002908F5000A166A
:1026F2008A1576240A168A110318AF2B003083122A
:102702000313D0008030D100BF30D20083160313F0
:10271200270883120313D300831603132808831296
:102722000313D40083160313290883120313D5005D
:102732000A168A115B2583120313500883160313AA
:10274200A40083120313510883160313A5008312F6
:102752000313520883160313A600080083160313FB
:102762002708A4002808A5002908A600080083124B
:1027720003136708F0006808F1006908F2000030EE
:10278200F3000030F4000030F5000A168A157624B2
:102792000A168A110318DC2B213083160313E70073
:1027A2000030E800003083120313E7000030E80035
:1027B2000030E90008008312031369086804670403
:1027C200031DF22B223083160313E7000030E800CA
:1027D200003083120313E7000030E8000030E90004
:1027E20008000030D0008030D100BF30D20000306D
:1027F200B0000030B1004030B2006B30EA006A082D
:10280200F3006708F0006808F1006908F2000A1294
:102812008A1109200A168A11700883120313B30061
:102822007108B4007208B5000A168A1188240A16C3
:102832008A11831203133008D3003108D4003208FE
:10284200D5000A168A115B250A168A118312031310
:102852005008E7005108E8005208E900FF30EB0792
:102862000318EC0AFF30EC076708DD006808DE0099
:102872006908DF009530EA006A08E0000830E100EC
:102882000030E2000A168A1560260A168A1183129F
:1028920003135D08E7005E08E8005F08E9006708C7
:1028A200D0006808D1006908D2007230B00031301F
:1028B200B1003F30B2006C08F901F9076B08F8016A
:1028C200F8070A168A15B6220A168A1178088312A0
:1028D2000313B3007908B4007A08B5000A168A1106
:1028E20088240A168A11831203133008D300310890
:1028F200D4003208D5000A168A115B25831203130D
:102902005008E7005108E8005208E9000800831265
:1029120003133008B6003108B7003208B8000310BC
:10292200370D380DB9003908BA00BA08031DA02CBA
:102932000030B0000030B1000030B20008003308AF
:10294200B6003408B7003508B8000310370D380D4B
:10295200B9003908BF00BF08031DB62C0030B00013
:102962000030B1000030B20008003F087B3EB600E4
:102972003608BA073008B6003108B7003208B80086
:1029820010300310B80CB70CB60CFF3E031DC22C5E
:102992003608B9003908BF003308B6003408B7005A
:1029A2003508B80010300310B80CB70CB60CFF3E57
:1029B200031DD42C3608B9003908BF068030B60092
:1029C2003608BF05B117B417FF30B305FF30B405A1
:1029D2000030B5050030BB000030BC000030BD0047
:1029E2000730B6003608BE00301C052D3308BB0781
:1029F200340803110318340A031DBC0735080311F8
:102A02000318350A031DBD0701300310B20CB10CC7
:102A1200B00CFF3E031D062D01300310B30DB40DA3
:102A2200B50DFF3E031D0E2D0130BE02031DF52C18
:102A32000930B6003608BE00301C2D2D3308BB0706
:102A4200340803110318340A031DBC0735080311A7
:102A52000318350A031DBD0701300310B20CB10C77
:102A6200B00CFF3E031D2E2D01300310BD0CBC0C1B
:102A7200BB0CFF3E031D362D0130BE02031D1D2D72
:102A82003B08F0003C08F1003D08F2003A08B600AD
:102A92003608F3003F08B7003708F4000A168A1513
:102AA2008E25700883120313B0007108B1007208FA
:102AB200B2000800831203135008D6005108D70051
:102AC2005208D8000310570D580DD9005908DC00E0
:102AD2005308D6005408D7005508D8000310570DE4
:102AE200580DD9005908DB005C080319842D5B08D6
:102AF2005C0203188B2D5C03FF3A5B07D60019308A
:102B02005602031C8B2D5308D0005408D1005508DF
:102B1200D20008005B08031908005C085B02031876
:102B22009A2D5B03FF3A5C07D60019305602031850
:102B320008000630D6005608DA00D21BDA17D51B79
:102B42005A17D117FF30D005FF30D1050030D2051A
:102B5200D417FF30D305FF30D4050030D5055B080C
:102B62005C020318DA2D01300310D30DD40DD50DFC
:102B7200FF3E031DB52D0130DB025B085C06031925
:102B8200D52D0130DA025A0807390319D52DB42D93
:102B920001300310D20CD10CD00CFF3E031DCA2D04
:102BA2000130D6005608DC075C085B060319032EC9
:102BB200C92D5C085B020318032E01300310D00DEF
:102BC200D10DD20DFF3E031DDF2D0130DC025B086B
:102BD2005C060319FF2D0130DA025A08073903197E
:102BE200FF2DDE2D01300310D50CD40CD30CFF3E8B
:102BF200031DF42D0130D6005608DB075C085B0686
:102C0200031DF32DDA1F152EFF30D006FF30D1063B
:102C1200FF30D2060130D007003003180130D1074F
:102C2200003003180130D2075A1F272EFF30D30677
:102C3200FF30D406FF30D5060130D3070030031829
:102C42000130D407003003180130D507DA015008EB
:102C5200D307510803110318510A031DD407520860
:102C620003110318520A031DD507D51F4A2EFF3040
:102C7200D306FF30D406FF30D5060130D30700302B
:102C820003180130D407003003180130D507DA01E8
:102C9200DA0A5308F0005408F1005508F2005C0803
:102CA200D6005608F3005A08D7005708F4000A164F
:102CB2008A158E25700883120313D0007108D10083
:102CC2007208D200080083120313CF006E304F0245
:102CD200031C442F0330C3004308A4000A30F7004A
:102CE2000030F8004F08C400C5014408F20045084E
:102CF200F3006430F0000030F1000A168A15DB237D
:102D02000A168A117108FA01FA077008F901F9071F
:102D12000A168A15D3240A168A117708093E0A165A
:102D22008A11BB200A168A11293E84000A168A11CA
:102D320000200A168A1183120313B0000A168A11A0
:102D420000200A168A11B1000A168A1100200A16FA
:102D52008A11B2000330C6004608A4006430F700AE
:102D62000030F8004F08C700C8014708F9004808BA
:102D7200FA000A168A15D3240A168A117708123E17
:102D82000A168A11BB200A168A11293E84000A16E5
:102D92008A1100200A168A1183120313B3000A163D
:102DA2008A1100200A168A11B4000A168A1100201C
:102DB2000A168A11B5000A168A1188240A168A117F
:102DC200831203133008CC003108CD003208CE0044
:102DD2000330C3004308A4004F08C400C5014408DF
:102DE200F2004508F3000A30F0000030F1000A1644
:102DF2008A15DB230A168A1170080A168A11BB206B
:102E02000A168A11293E84000A168A1100200A161F
:102E12008A1183120313B0000A168A1100200A16BF
:102E22008A11B1000A168A1100200A168A11B2000C
:102E32004C08B3004D08B4004E08B5000A168A11BA
:102E420088240A168A11831203133008C900310834
:102E5200CA003208CB000030B0000030B1003F3071
:102E6200B2004908B3004A08B4004B08B5000A167C
:102E72008A118824831203133008C0003108C1006C
:102E82003208C20008000B304F02031CCE2F033061
:102E9200C3004308A4004F08C400C5014408F2005F
:102EA2004508F3000A30F0000030F1000A168A15D6
:102EB200DB230A168A1170080A168A11BB200A1629
:102EC2008A11293E84000A168A1100200A168A11E4
:102ED20083120313B0000A168A1100200A168A11FF
:102EE200B1000A168A1100200A168A11B2000330B4
:102EF200C6004608A4000A30F7000030F8004F0868
:102F0200C700C8014708F9004808FA000A168A15DE
:102F1200D3240A168A117708093E0A168A11BB20A1
:102F22000A168A11293E84000A168A1100200A16FE
:102F32008A1183120313B3000A168A1100200A169B
:102F42008A11B4000A168A1100200A168A11B500E5
:102F52000A168A1188240A168A118312031330086A
:102F6200CC003108CD003208CE000030B000003075
:102F7200B1003F30B2004C08B3004D08B4004E0817
:102F8200B5000A168A118824831203133008C00080
:102F92003108C1003208C20008000030B000003021
:102FA200B1003F30B2000330C3004308A4004F0811
:102FB2000A168A11BB200A168A11293E84000A16B3
:102FC2008A1100200A168A1183120313B3000A160B
:102FD2008A1100200A168A11B4000A168A110020EA
:102FE2000A168A11B5000A168A118824831203135D
:0E2FF2003008C0003108C1003208C2000800DB
:103428000A168A15292283160313911408000A160E
:103438008A15292283160313111408000A168A15FF
:103448002922831603131115080083160313110884
:103458001F3903191419292A080072087104700405
:10346800031908008030F2060800F0000A168A15D1
:10347800292270088312031393000800831603138C
:103488008715071628308312031394008316031335
:10349800910194010930930008007E088A007F0892
:1034A800820051220A168A158000840A04087D06C3
:1034B80003190034FF0A0319FE0A552AF600760894
:1034C800831203138600081488140530F0000030B6
:1034D800F1000A168A1520238312031388100800A6
:1034E800F60076088312031386000810881401304A
:1034F800F0000030F1000A168A1520238312031306
:10350800881008007808F0007908F100F2018E3080
:10351800FB007B08F300F4010A168A158E25700853
:10352800F8007108F9007208FA0008008030831268
:103538000313DF066008D0006108D1006208D200DA
:103548005D08D3005E08D4005F08D5000A168A110A
:103558005B25831203135008DD005108DE00520872
:10356800DF000800FD01F91FC02AF809F909F80A67
:103578000319F90AFD01FD0A7808F0007908F1003D
:10358800F2018E30FB007B08F3007D08FC007C080C
:10359800F4000A168A158E257008F8007108F900DB
:1035A8007208FA000800F401F501701CE12A72089B
:1035B800F4070318F50A7308F50701300310F20D34
:1035C800F30DFF3E031DE22A01300310F10CF00C4D
:1035D800FF3E031DE92A71087004031DD92A7508E6
:1035E800F101F1077408F001F0070800F1000A166C
:1035F8008A1529220A168A158316031391150A16A5
:103608008A1529220A168A15831203131308F00053
:103618007008F2000A168A1529220A168A15F10876
:10362800031D1A2B8316031391161D2B83160313E0
:1036380091121116720808007108F301F307700857
:10364800F201F207730872040319342BFF30F207F2
:103658000318F30AFF30F30773087204031D2A2BBB
:10366800F401F5017508803AFF0093307F02031DCD
:103678003F2B88307402031808000130F407031840
:10368800F50A0030F507362B8A300A168A15742297
:103698000A168A15831603136108CB006008CA004E
:1036A8005F08C9005E08C800B03083120313EF003A
:1036B8006F08EB0083160313660883120313ED01EA
:1036C800ED0783160313650883120313EC01EC0757
:1036D800C8300A128A1189210A168A15831603131B
:1036E80048080A168A1562220A168A1583160313D1
:1036F80049080A168A1562220A168A1583160313C0
:103708004A080A168A1562220A168A1525300A16E8
:103718008A156222080083160313A3018E30A000C5
:103728002008A20083120313EE1FA92BEB09EC0952
:10373800ED09EE09EB0A0319EC0A0319ED0A03195E
:10374800EE0A83160313A301A30AFF3083126E0542
:103758000319BF2B013003108312EE0CED0CEC0C97
:10376800EB0CFF3E031DAF2B013083160313A000A3
:103778002008A207A92B6B08F0006C08F1006D085F
:10378800F200831603132208A0002008F300230880
:10379800A1002108F4000A168A158E2570088312E4
:1037A8000313EB007108EC007208ED000800F60145
:1037B800F31FE52BF209F309F20A0319F30AF601DC
:1037C800F60AF11FEC2BF009F109F00A0319F10AC6
:1037D800710870040319192CF501F50AF11B002C66
:1037E80001300310F00DF10DFF3E031DF52B0130E4
:1037F800F4007408F507F22B71087302031D062CF8
:1038080070087202031C0E2C7008F2027108031C67
:10381800F303F30201300310F10CF00CFF3E031D1B
:103828000F2C0130F502031D002C76080319212CFA
:10383800F209F309F20A0319F30A7308F101F1070F
:103848007208F001F007080083120313230822040A
:103858002104200403196D2CA901A90AA31B422CD9
:103868000130A8000310A00DA10DA20DA30DA80BF7
:10387800362C0130A8002808A907322C2308270273
:10388800031D502C22082602031D502C2108250256
:10389800031D502C20082402031C602C2008A402BD
:1038A8002108031C210FA5022208031C220FA602CF
:1038B8002308031C230FA70201300310A30CA20C3A
:1038C800A10CA00CFF3E031D612C0130A902031DB1
:1038D800422C2708A3002608A2002508A1002408D6
:1038E800A0000800F21F9D2C0030F6000030F70001
:1038F8008030F8007009F9007109FA007209FB00BC
:10390800F90A0319FA0A0319FB0A7908F6077A086B
:1039180003187A0F902C912CF7077B0803187B0F5C
:10392800962C972CF8077608F0007708F1007808AD
:10393800F200F51FC42C0030F6000030F70080308C
:10394800F8007309F9007409FA007509FB00F90A0F
:103958000319FA0A0319FB0A7908F6077A08031803
:103968007A0FB72CB82CF7077B0803187B0FBD2CF0
:10397800BE2CF8077608F3007708F4007808F500FD
:103988008030F2068030F50675087202031D0800C3
:1039980074087102031D080073087002080083127E
:1039A8000313A101F81FDF2CF709F809F70A031917
:1039B800F80AA101A10AFA1FEA2CF909FA09F90A79
:1039C8000319FA0A0130FB007B08A106A201A30132
:1039D800780877040319212DA001A00AF81B002DEF
:1039E80001300310F70DF80DFF3E031DF52C0130D3
:1039F800FB007B08A007F22C01300310A20DA30DD9
:103A0800FF3E031D012D78087A02031D0D2D77084E
:103A18007902031C162D7708F9027808031CFA03AB
:103A2800FA02221401300310F80CF70CFF3E031DB4
:103A3800172D0130A002031D002D21080319292D7F
:103A4800A209A309A20A0319A30A2308F801F8077F
:103A58002208F701F70708000030FC000030FB00DF
:103A68000030FA000030F900730872047104700421
:103A78000319852DFD01FD0AF31B502D0130F800B7
:103A88000310F00DF10DF20DF30DF80B442D01307C
:103A9800F8007808FD07402D0130F8000310F90DF3
:103AA800FA0DFB0DFC0DF80B522D73087702031D60
:103AB800672D72087602031D672D71087502031DB4
:103AC800672D70087402031C782D7008F4027108C1
:103AD800031C710FF5027208031C720FF6027308BB
:103AE800031C730FF702791401300310F30CF20C66
:103AF800F10CF00CFF3E031D792D0130FD02031D72
:103B0800502D7C08F3007B08F2007A08F100790850
:103B1800F000080073080319962D720871047004E8
:103B2800031DA92D0030F0000030F1000030F20034
:103B380008000130F5007508F30701300310F20C96
:103B4800F10CF00CFF3E031DA22DFE307205031987
:103B5800C42D9D2D0130F5007508F3070130F007DD
:103B6800003003180130F107003003180130F20764
:103B780001300310F20CF10CF00CFF3E031DBD2DBB
:103B8800FF3072050319D32DAE2D0130F302013039
:103B98000310F00DF10DF20DFF3E031DCC2DF11FAA
:103BA800C92D7318DD2DFF30F0057F30F105FF308A
:103BB800F2050310F30C7308F500F601F701103055
:103BC8000310F50DF60DF70DFF3E031DE42D7508E6
:103BD800F0047608F1047708F20474080319080061
:103BE800F2170800CD300A168A1574220A168A15AB
:103BF800C830840083160313590883138000840A8D
:103C08005A088000840A5B088000840A5C088000E7
:103C1800840A5D088000B33083120313EF006F0835
:103C2800EB0083160313620883120313EC00831658
:103C38000313630883120313ED0083160313640848
:103C480083120313EE00C8300A128A1189210A165A
:103C58008A158316031348080A168A1562220A165B
:103C68008A158316031349080A168A1562220A164A
:103C78008A15831603134A080A168A1562220A1639
:103C88008A15831603134B080A168A1562220A1628
:103C98008A15831603134C080A168A1562220A1617
:103CA8008A1520300A168A1562220A168A154330A8
:103CB8000A168A1562220800033083120313E300F0
:103CC8006308A40061080A168A11BB200A168A151F
:103CD80083120313600784000A168A1100200A164B
:103CE8008A15E4000A168A1100200A168A15E500CA
:103CF8000A168A1100200A168A15E600620861046D
:103D08000319D22E0330E3006308A400FF30E10753
:103D18000318E20AFF30E20761080A168A11BB207D
:103D28000A168A1583120313600784000A168A117B
:103D380000200A168A15D0000A168A1100200A16D1
:103D48008A15D1000A168A1100200A168A15D2008F
:103D58006408B0006508B1006608B2005D08B300E9
:103D68005E08B4005F08B5000A168A1188240A168E
:103D78008A15831203133008D3003108D40032089F
:103D8800D5000A168A115B250A168A1583120313B1
:103D98005008E4005108E5005208812E6408DD004F
:103DA8006508DE006608DF000800831203135D085B
:103DB800E1005E08E2005F08E3000310620D630D96
:103DC800E4006408EA00EA08031DF32E0030E0006E
:103DD8000030DF000030DE000030DD0008005D0844
:103DE800E1005E08E2005F08E30017300310E30C0F
:103DF800E20CE10CFF3E031DFA2E6108E4006408A2
:103E0800E500DE17FF30DD05FF30DE050030DF0599
:103E18005D08E6005E08E7005F08E800E9018E300B
:103E2800EA02EA1F352F6A08803A8F3E0318252FC9
:103E38000030E0000030DF000030DE000030DD0040
:103E4800080001300310E90CE80CE70CE60CFF3E13
:103E5800031D262F0130E1006108EA070319502FDE
:103E6800252F18306A02031C4D2F0030E000003067
:103E7800DF000030DE000030DD0008000130E10026
:103E88000310E60DE70DE80DE90DE10B442F0130B5
:103E9800EA02EA08031D422F650803195E2FE609A6
:103EA800E709E809E909E60A0319E70A0319E80A2C
:103EB8000319E90A6908E0006808DF006708DE00FE
:103EC8006608DD00080083120313690868046704A4
:103ED800031D752F0030E7000030E8000030E900CE
:103EE800080069087F39EC00ED010310EC0DED0DB9
:103EF8006C08EA070318EB0A6D08EB07680D680DF4
:103F08000139EC00ED016C08EA070318EB0A6D08AB
:103F1800EB07EB1F9E2F223083160313E7000030B8
:103F2800E800003083120313E7000030E800003097
:103F3800E90008006B08803AFF0081307F02031D0A
:103F4800A72F00306A02031CE72F223083160313C1
:103F5800E7000030E800831203136708F0006808E0
:103F6800F1006908F2000030F3000030F40000307E
:103F7800F5000A168A1576240A168A150318DE2F04
:103F8800FF3083160313A0007F30A1007F30A2000A
:103F98002008F0002108F1002208F2000A168A150C
:103FA8003122700883120313E7007108E8007208D1
:103FB800E9000800FF3083120313E7007F30E800B0
:103FC8007F30E9000800831203136B08ED006A08CC
:103FD800EC006D0DED0CEC0C69086C0680396C0674
:103FE800E9006A080139EC00EC0CEC0C68086C0676
:083FF8007F396C06E8000800A7
:00000001FF
