:060000000A128A11FC2F18
:100F060019308316031399001812831203139817C6
:100F160083160313181318159816FF308600F80168
:100F2600F9018312061EA42F83160313981C972F0C
:100F36000A128A11A7270A128A117008831203134C
:100F46009900061E942FA42F8312031306080F3947
:100F5600F200F3017208F4007308F500CA2F01309D
:100F6600C32F0230C32F0330C32F0430C32F0530E5
:100F7600C32F0630C32F0730C32F0830C32F0930C5
:100F8600F6000030F700F52FF601F701F52F75088A
:100F9600003A0319CF2FF52F7408003A0319B22F20
:100FA600013A0319B42F033A0319B62F063A031967
:100FB600B82F013A0319BA2F033A0319BC2F0E3A78
:100FC6000319BE2F013A0319C02F033A0319C22F82
:100FD600063A0319F52F013A0319C72F033A0319E5
:100FE600F52FF52F7708F101F1077608F001F007E4
:0A0FF600080083010A128A11832FFC
:00000001FF
