:060000000A128A11FC2F18
:100F2C000630831603139F0007309C0001308500A8
:100F3C00860183120313860183120313051CA22F4F
:100F4C00F001F1017108803AFF0080307F02031D2F
:100F5C00B12F033070020318A22FF201F3017308B2
:100F6C00803AFF00A7307F02031DBE2F10307202A3
:100F7C000318D12F0130F2070318F30A0030F307DE
:100F8C007308803AFF00A7307F02031DCF2F10306B
:100F9C007202031CC02F831203130614F201F30117
:100FAC007308803AFF00A7307F02031DDF2F10303B
:100FBC0072020318F22F0130F2070318F30A003003
:100FCC00F3077308803AFF00A7307F02031DF02F50
:100FDC0010307202031CE12F831203130610013030
:100FEC00F0070318F10A0030F107A82F83010A1249
:040FFC008A11962F91
:02400E0071FF40
:00000001FF
