:060000000A128A11122809
:10000800FE00030EF2000408F3000A08F40083124D
:1000180003137F08F5000A128A1119280A128A1197
:10002800152883010A128A1172288B138B1C6628E3
:1000380008080F39F000F1017008F6007108F700A0
:100048003A28013036280230362803303628043062
:100058003628053036280630362807303628083046
:100068003628093087006528870165287708003A0F
:1000780003193F2865287608003A03192528013A0C
:1000880003192728033A03192928063A03192B28A4
:10009800013A03192D28033A03192F280E3A031998
:1000A8003128013A03193328033A03193528063A47
:1000B80003193828013A03193828033A031938284C
:1000C80065288B108B177508FF0074088A00730861
:1000D8008400720E8300FE0E7E0E09008B170B162D
:1000E8008B1043308316031381000130860087018B
:0E00F800FF3088000530831203138700822832
:02400E0071FF40
:00000001FF
