:060000000A128A11122809
:10000800FE00030EF2000408F3000A08F40083124D
:1000180003137F08F5000A128A111C280A128A1194
:100028001528F801A701A80183010A128A117D2861
:100038008B138B1C6D2808080F39F000F10170082C
:10004800F6007108F70040280130392802303928B5
:100058000330392804303928053039280630392842
:1000680007303928083039280930A7000030A8009F
:100078006B28A701A8016B287708003A03194528BF
:100088006B287608003A03192828013A03192A2808
:10009800033A03192C28063A03192E28013A0319A2
:1000A8003028033A031932280E3A03193428013A42
:1000B80003193628033A03193828063A03193D2844
:1000C800013A03193D28033A03193D286B288B1080
:1000D80071280B1D71280B1178148B177508FF00F8
:1000E80074088A0073088400720E8300FE0E7E0E68
:1000F80009008B170B168B104330831603138100EE
:100108000B178B160B11013086008701FF30880012
:10011800053083120313870083120313A501A60178
:100128002608803AFF0080307F02031D9D28083092
:10013800250203189028831203132708870001302B
:10014800A7070318A80A0030A807C330A00000308A
:10015800A1000A128A11C2200A128A110A308312D7
:10016800031327062804031DBB28A701A801013093
:10017800A5070318A60A0030A607942883120313BC
:10018800A301A401831203132408803AA2002108C2
:10019800803A2202031DD2282008230203180800EF
:1001A800781CC628013083120313A3070318A40A76
:0801B8000030A4077810C628EE
:02400E0071FF40
:00000001FF
