:060000000A128A11122809
:10000800FE00030EF2000408F3000A08F40083124D
:1000180003137F08F5000A128A1123280A128A118D
:1000280015280A128A11D1200A128A11A5000A126B
:100038008A11D220A60083010A128A1184288B1300
:100048008B1C712808080F39F000F1017008F600C0
:100058007108F70044280130402802304028033056
:100068004028043040280530402806304028073012
:10007800402808304028093087006F2887016F28FA
:100088007708003A031949286F287608003A0319B7
:100098002F28013A03193128033A03193328063A5D
:1000A80003193528013A03193728033A031939285F
:1000B8000E3A03193B28013A03193D28033A03195C
:1000C8003F28063A03194228013A03194228033AFD
:1000D800031942286F288B1078280B1D78280130C7
:1000E800A5000030A6000B118B177508FF007408D7
:1000F8008A0073088400720E8300FE0E7E0E0900CB
:100108008B170B168B1043308316031381008B1645
:100118000B11850106309F00013086008701FF30F2
:100128008800053083120313870083120313051414
:10013800F430A0000030A1000A128A11B2200A127D
:100148008A11831203130510F430A0000030A100B7
:100158000A128A11B2200A128A11992883120313EB
:10016800A301A4012408803AA2002108803A2202AF
:10017800031DC02820082302031808008312031354
:10018800260825040319B6280130A3070318A40A72
:0E0198000030A407A501A601B62801340034EA
:02400E0071FF40
:00000001FF
