:060000000A128A11F02F24
:100E420059346F3475342034503472346534733409
:100E5200733465346434203420342E340D340A342F
:100E62007E088A007F08820031270A128A118000D8
:100E7200840A04087D0603190034FF0A0319FE0AD6
:100E8200352F8312031306080F39F0007008F100A2
:100E9200652F3130612F3230612F3330612F343082
:100EA200612F3530612F3630612F3730612F383066
:100EB200612F3930612F2A30612F3030612F23307A
:100EC200F0007008F2008B2F7108003A03194A2FC4
:100ED200013A03194C2F033A03194E2F063A03190C
:100EE200502F013A0319522F033A0319542F0E3A85
:100EF2000319562F013A0319582F033A03195A2F8F
:100F0200063A03195C2F013A03195E2F033A0319BB
:100F1200602F8B2F72080800193083160313990073
:100F22001812831203139817831603131813181534
:100F32009816FF30860083120313B001B1012030EE
:100F420084003230F3000408F4001030F500730816
:100F5200840083130008F600F30A740884007608FC
:100F62008000F40AF50BA82F061EB52F0A128A116B
:100F720042270A128A11F300730883120313AC008A
:100F8200B001B1013108803AFF0080307F02031DB9
:100F9200CC2F103030020318EB2F83160313981C4A
:100FA200CE2F831203133008203E840083130008DF
:100FB20099000130B0070318B10A0030B1073108B7
:100FC200803AFF0080307F02031DE92F103030028B
:100FD200031CCE2F83120313061EB52FEB2F831390
:100FE2004230FD000730FE002130FF003230840025
:0E0FF2000A128A11352783010A128A118D2FE7
:00000001FF
